{
  "_format": "hh-sol-artifact-1",
  "contractName": "EIP712Domain",
  "sourceName": "contracts/fiatToken/EIP712Domain.sol",
  "abi": [
    {
      "inputs": [],
      "name": "DOMAIN_SEPARATOR",
      "outputs": [
        {
          "internalType": "bytes32",
          "name": "",
          "type": "bytes32"
        }
      ],
      "stateMutability": "view",
      "type": "function"
    }
  ],
  "bytecode": "0x6080604052348015600f57600080fd5b5060818061001e6000396000f3fe6080604052348015600f57600080fd5b506004361060285760003560e01c80633644e51514602d575b600080fd5b60336045565b60408051918252519081900360200190f35b6000548156fea2646970667358221220b69bec6f6b3fc3368d417726e74c915fd8642dec419c3828f0f988802d25291964736f6c634300060c0033",
  "linkReferences": {},
  "deployedLinkReferences": {}
}