{
  "_format": "hh-sol-artifact-1",
  "contractName": "FiatTokenV2",
  "sourceName": "contracts/fiatToken/FiatTokenV2.sol",
  "abi": [
    {
      "anonymous": false,
      "inputs": [
        {
          "indexed": true,
          "internalType": "address",
          "name": "owner",
          "type": "address"
        },
        {
          "indexed": true,
          "internalType": "address",
          "name": "spender",
          "type": "address"
        },
        {
          "indexed": false,
          "internalType": "uint256",
          "name": "value",
          "type": "uint256"
        }
      ],
      "name": "Approval",
      "type": "event"
    },
    {
      "anonymous": false,
      "inputs": [
        {
          "indexed": true,
          "internalType": "address",
          "name": "authorizer",
          "type": "address"
        },
        {
          "indexed": true,
          "internalType": "bytes32",
          "name": "nonce",
          "type": "bytes32"
        }
      ],
      "name": "AuthorizationCanceled",
      "type": "event"
    },
    {
      "anonymous": false,
      "inputs": [
        {
          "indexed": true,
          "internalType": "address",
          "name": "authorizer",
          "type": "address"
        },
        {
          "indexed": true,
          "internalType": "bytes32",
          "name": "nonce",
          "type": "bytes32"
        }
      ],
      "name": "AuthorizationUsed",
      "type": "event"
    },
    {
      "anonymous": false,
      "inputs": [
        {
          "indexed": true,
          "internalType": "address",
          "name": "_account",
          "type": "address"
        }
      ],
      "name": "Blacklisted",
      "type": "event"
    },
    {
      "anonymous": false,
      "inputs": [
        {
          "indexed": true,
          "internalType": "address",
          "name": "newBlacklister",
          "type": "address"
        }
      ],
      "name": "BlacklisterChanged",
      "type": "event"
    },
    {
      "anonymous": false,
      "inputs": [
        {
          "indexed": true,
          "internalType": "address",
          "name": "burner",
          "type": "address"
        },
        {
          "indexed": false,
          "internalType": "uint256",
          "name": "amount",
          "type": "uint256"
        }
      ],
      "name": "Burn",
      "type": "event"
    },
    {
      "anonymous": false,
      "inputs": [
        {
          "indexed": true,
          "internalType": "address",
          "name": "newMasterMinter",
          "type": "address"
        }
      ],
      "name": "MasterMinterChanged",
      "type": "event"
    },
    {
      "anonymous": false,
      "inputs": [
        {
          "indexed": true,
          "internalType": "address",
          "name": "minter",
          "type": "address"
        },
        {
          "indexed": true,
          "internalType": "address",
          "name": "to",
          "type": "address"
        },
        {
          "indexed": false,
          "internalType": "uint256",
          "name": "amount",
          "type": "uint256"
        }
      ],
      "name": "Mint",
      "type": "event"
    },
    {
      "anonymous": false,
      "inputs": [
        {
          "indexed": true,
          "internalType": "address",
          "name": "minter",
          "type": "address"
        },
        {
          "indexed": false,
          "internalType": "uint256",
          "name": "minterAllowedAmount",
          "type": "uint256"
        }
      ],
      "name": "MinterConfigured",
      "type": "event"
    },
    {
      "anonymous": false,
      "inputs": [
        {
          "indexed": true,
          "internalType": "address",
          "name": "oldMinter",
          "type": "address"
        }
      ],
      "name": "MinterRemoved",
      "type": "event"
    },
    {
      "anonymous": false,
      "inputs": [
        {
          "indexed": false,
          "internalType": "address",
          "name": "previousOwner",
          "type": "address"
        },
        {
          "indexed": false,
          "internalType": "address",
          "name": "newOwner",
          "type": "address"
        }
      ],
      "name": "OwnershipTransferred",
      "type": "event"
    },
    {
      "anonymous": false,
      "inputs": [],
      "name": "Pause",
      "type": "event"
    },
    {
      "anonymous": false,
      "inputs": [
        {
          "indexed": true,
          "internalType": "address",
          "name": "newAddress",
          "type": "address"
        }
      ],
      "name": "PauserChanged",
      "type": "event"
    },
    {
      "anonymous": false,
      "inputs": [
        {
          "indexed": true,
          "internalType": "address",
          "name": "newRescuer",
          "type": "address"
        }
      ],
      "name": "RescuerChanged",
      "type": "event"
    },
    {
      "anonymous": false,
      "inputs": [
        {
          "indexed": true,
          "internalType": "address",
          "name": "from",
          "type": "address"
        },
        {
          "indexed": true,
          "internalType": "address",
          "name": "to",
          "type": "address"
        },
        {
          "indexed": false,
          "internalType": "uint256",
          "name": "value",
          "type": "uint256"
        }
      ],
      "name": "Transfer",
      "type": "event"
    },
    {
      "anonymous": false,
      "inputs": [
        {
          "indexed": true,
          "internalType": "address",
          "name": "_account",
          "type": "address"
        }
      ],
      "name": "UnBlacklisted",
      "type": "event"
    },
    {
      "anonymous": false,
      "inputs": [],
      "name": "Unpause",
      "type": "event"
    },
    {
      "inputs": [],
      "name": "CANCEL_AUTHORIZATION_TYPEHASH",
      "outputs": [
        {
          "internalType": "bytes32",
          "name": "",
          "type": "bytes32"
        }
      ],
      "stateMutability": "view",
      "type": "function"
    },
    {
      "inputs": [],
      "name": "DOMAIN_SEPARATOR",
      "outputs": [
        {
          "internalType": "bytes32",
          "name": "",
          "type": "bytes32"
        }
      ],
      "stateMutability": "view",
      "type": "function"
    },
    {
      "inputs": [],
      "name": "PERMIT_TYPEHASH",
      "outputs": [
        {
          "internalType": "bytes32",
          "name": "",
          "type": "bytes32"
        }
      ],
      "stateMutability": "view",
      "type": "function"
    },
    {
      "inputs": [],
      "name": "RECEIVE_WITH_AUTHORIZATION_TYPEHASH",
      "outputs": [
        {
          "internalType": "bytes32",
          "name": "",
          "type": "bytes32"
        }
      ],
      "stateMutability": "view",
      "type": "function"
    },
    {
      "inputs": [],
      "name": "TRANSFER_WITH_AUTHORIZATION_TYPEHASH",
      "outputs": [
        {
          "internalType": "bytes32",
          "name": "",
          "type": "bytes32"
        }
      ],
      "stateMutability": "view",
      "type": "function"
    },
    {
      "inputs": [
        {
          "internalType": "address",
          "name": "owner",
          "type": "address"
        },
        {
          "internalType": "address",
          "name": "spender",
          "type": "address"
        }
      ],
      "name": "allowance",
      "outputs": [
        {
          "internalType": "uint256",
          "name": "",
          "type": "uint256"
        }
      ],
      "stateMutability": "view",
      "type": "function"
    },
    {
      "inputs": [
        {
          "internalType": "address",
          "name": "spender",
          "type": "address"
        },
        {
          "internalType": "uint256",
          "name": "value",
          "type": "uint256"
        }
      ],
      "name": "approve",
      "outputs": [
        {
          "internalType": "bool",
          "name": "",
          "type": "bool"
        }
      ],
      "stateMutability": "nonpayable",
      "type": "function"
    },
    {
      "inputs": [
        {
          "internalType": "address",
          "name": "authorizer",
          "type": "address"
        },
        {
          "internalType": "bytes32",
          "name": "nonce",
          "type": "bytes32"
        }
      ],
      "name": "authorizationState",
      "outputs": [
        {
          "internalType": "bool",
          "name": "",
          "type": "bool"
        }
      ],
      "stateMutability": "view",
      "type": "function"
    },
    {
      "inputs": [
        {
          "internalType": "address",
          "name": "account",
          "type": "address"
        }
      ],
      "name": "balanceOf",
      "outputs": [
        {
          "internalType": "uint256",
          "name": "",
          "type": "uint256"
        }
      ],
      "stateMutability": "view",
      "type": "function"
    },
    {
      "inputs": [
        {
          "internalType": "address",
          "name": "_account",
          "type": "address"
        }
      ],
      "name": "blacklist",
      "outputs": [],
      "stateMutability": "nonpayable",
      "type": "function"
    },
    {
      "inputs": [],
      "name": "blacklister",
      "outputs": [
        {
          "internalType": "address",
          "name": "",
          "type": "address"
        }
      ],
      "stateMutability": "view",
      "type": "function"
    },
    {
      "inputs": [
        {
          "internalType": "uint256",
          "name": "_amount",
          "type": "uint256"
        }
      ],
      "name": "burn",
      "outputs": [],
      "stateMutability": "nonpayable",
      "type": "function"
    },
    {
      "inputs": [
        {
          "internalType": "address",
          "name": "authorizer",
          "type": "address"
        },
        {
          "internalType": "bytes32",
          "name": "nonce",
          "type": "bytes32"
        },
        {
          "internalType": "uint8",
          "name": "v",
          "type": "uint8"
        },
        {
          "internalType": "bytes32",
          "name": "r",
          "type": "bytes32"
        },
        {
          "internalType": "bytes32",
          "name": "s",
          "type": "bytes32"
        }
      ],
      "name": "cancelAuthorization",
      "outputs": [],
      "stateMutability": "nonpayable",
      "type": "function"
    },
    {
      "inputs": [
        {
          "internalType": "address",
          "name": "minter",
          "type": "address"
        },
        {
          "internalType": "uint256",
          "name": "minterAllowedAmount",
          "type": "uint256"
        }
      ],
      "name": "configureMinter",
      "outputs": [
        {
          "internalType": "bool",
          "name": "",
          "type": "bool"
        }
      ],
      "stateMutability": "nonpayable",
      "type": "function"
    },
    {
      "inputs": [],
      "name": "currency",
      "outputs": [
        {
          "internalType": "string",
          "name": "",
          "type": "string"
        }
      ],
      "stateMutability": "view",
      "type": "function"
    },
    {
      "inputs": [],
      "name": "decimals",
      "outputs": [
        {
          "internalType": "uint8",
          "name": "",
          "type": "uint8"
        }
      ],
      "stateMutability": "view",
      "type": "function"
    },
    {
      "inputs": [
        {
          "internalType": "address",
          "name": "spender",
          "type": "address"
        },
        {
          "internalType": "uint256",
          "name": "decrement",
          "type": "uint256"
        }
      ],
      "name": "decreaseAllowance",
      "outputs": [
        {
          "internalType": "bool",
          "name": "",
          "type": "bool"
        }
      ],
      "stateMutability": "nonpayable",
      "type": "function"
    },
    {
      "inputs": [
        {
          "internalType": "address",
          "name": "spender",
          "type": "address"
        },
        {
          "internalType": "uint256",
          "name": "increment",
          "type": "uint256"
        }
      ],
      "name": "increaseAllowance",
      "outputs": [
        {
          "internalType": "bool",
          "name": "",
          "type": "bool"
        }
      ],
      "stateMutability": "nonpayable",
      "type": "function"
    },
    {
      "inputs": [
        {
          "internalType": "string",
          "name": "tokenName",
          "type": "string"
        },
        {
          "internalType": "string",
          "name": "tokenSymbol",
          "type": "string"
        },
        {
          "internalType": "string",
          "name": "tokenCurrency",
          "type": "string"
        },
        {
          "internalType": "uint8",
          "name": "tokenDecimals",
          "type": "uint8"
        },
        {
          "internalType": "address",
          "name": "newMasterMinter",
          "type": "address"
        },
        {
          "internalType": "address",
          "name": "newPauser",
          "type": "address"
        },
        {
          "internalType": "address",
          "name": "newBlacklister",
          "type": "address"
        },
        {
          "internalType": "address",
          "name": "newOwner",
          "type": "address"
        }
      ],
      "name": "initialize",
      "outputs": [],
      "stateMutability": "nonpayable",
      "type": "function"
    },
    {
      "inputs": [
        {
          "internalType": "string",
          "name": "newName",
          "type": "string"
        }
      ],
      "name": "initializeV2",
      "outputs": [],
      "stateMutability": "nonpayable",
      "type": "function"
    },
    {
      "inputs": [
        {
          "internalType": "address",
          "name": "_account",
          "type": "address"
        }
      ],
      "name": "isBlacklisted",
      "outputs": [
        {
          "internalType": "bool",
          "name": "",
          "type": "bool"
        }
      ],
      "stateMutability": "view",
      "type": "function"
    },
    {
      "inputs": [
        {
          "internalType": "address",
          "name": "account",
          "type": "address"
        }
      ],
      "name": "isMinter",
      "outputs": [
        {
          "internalType": "bool",
          "name": "",
          "type": "bool"
        }
      ],
      "stateMutability": "view",
      "type": "function"
    },
    {
      "inputs": [],
      "name": "masterMinter",
      "outputs": [
        {
          "internalType": "address",
          "name": "",
          "type": "address"
        }
      ],
      "stateMutability": "view",
      "type": "function"
    },
    {
      "inputs": [
        {
          "internalType": "address",
          "name": "_to",
          "type": "address"
        },
        {
          "internalType": "uint256",
          "name": "_amount",
          "type": "uint256"
        }
      ],
      "name": "mint",
      "outputs": [
        {
          "internalType": "bool",
          "name": "",
          "type": "bool"
        }
      ],
      "stateMutability": "nonpayable",
      "type": "function"
    },
    {
      "inputs": [
        {
          "internalType": "address",
          "name": "minter",
          "type": "address"
        }
      ],
      "name": "minterAllowance",
      "outputs": [
        {
          "internalType": "uint256",
          "name": "",
          "type": "uint256"
        }
      ],
      "stateMutability": "view",
      "type": "function"
    },
    {
      "inputs": [],
      "name": "name",
      "outputs": [
        {
          "internalType": "string",
          "name": "",
          "type": "string"
        }
      ],
      "stateMutability": "view",
      "type": "function"
    },
    {
      "inputs": [
        {
          "internalType": "address",
          "name": "owner",
          "type": "address"
        }
      ],
      "name": "nonces",
      "outputs": [
        {
          "internalType": "uint256",
          "name": "",
          "type": "uint256"
        }
      ],
      "stateMutability": "view",
      "type": "function"
    },
    {
      "inputs": [],
      "name": "owner",
      "outputs": [
        {
          "internalType": "address",
          "name": "",
          "type": "address"
        }
      ],
      "stateMutability": "view",
      "type": "function"
    },
    {
      "inputs": [],
      "name": "pause",
      "outputs": [],
      "stateMutability": "nonpayable",
      "type": "function"
    },
    {
      "inputs": [],
      "name": "paused",
      "outputs": [
        {
          "internalType": "bool",
          "name": "",
          "type": "bool"
        }
      ],
      "stateMutability": "view",
      "type": "function"
    },
    {
      "inputs": [],
      "name": "pauser",
      "outputs": [
        {
          "internalType": "address",
          "name": "",
          "type": "address"
        }
      ],
      "stateMutability": "view",
      "type": "function"
    },
    {
      "inputs": [
        {
          "internalType": "address",
          "name": "owner",
          "type": "address"
        },
        {
          "internalType": "address",
          "name": "spender",
          "type": "address"
        },
        {
          "internalType": "uint256",
          "name": "value",
          "type": "uint256"
        },
        {
          "internalType": "uint256",
          "name": "deadline",
          "type": "uint256"
        },
        {
          "internalType": "uint8",
          "name": "v",
          "type": "uint8"
        },
        {
          "internalType": "bytes32",
          "name": "r",
          "type": "bytes32"
        },
        {
          "internalType": "bytes32",
          "name": "s",
          "type": "bytes32"
        }
      ],
      "name": "permit",
      "outputs": [],
      "stateMutability": "nonpayable",
      "type": "function"
    },
    {
      "inputs": [
        {
          "internalType": "address",
          "name": "from",
          "type": "address"
        },
        {
          "internalType": "address",
          "name": "to",
          "type": "address"
        },
        {
          "internalType": "uint256",
          "name": "value",
          "type": "uint256"
        },
        {
          "internalType": "uint256",
          "name": "validAfter",
          "type": "uint256"
        },
        {
          "internalType": "uint256",
          "name": "validBefore",
          "type": "uint256"
        },
        {
          "internalType": "bytes32",
          "name": "nonce",
          "type": "bytes32"
        },
        {
          "internalType": "uint8",
          "name": "v",
          "type": "uint8"
        },
        {
          "internalType": "bytes32",
          "name": "r",
          "type": "bytes32"
        },
        {
          "internalType": "bytes32",
          "name": "s",
          "type": "bytes32"
        }
      ],
      "name": "receiveWithAuthorization",
      "outputs": [],
      "stateMutability": "nonpayable",
      "type": "function"
    },
    {
      "inputs": [
        {
          "internalType": "address",
          "name": "minter",
          "type": "address"
        }
      ],
      "name": "removeMinter",
      "outputs": [
        {
          "internalType": "bool",
          "name": "",
          "type": "bool"
        }
      ],
      "stateMutability": "nonpayable",
      "type": "function"
    },
    {
      "inputs": [
        {
          "internalType": "contract IERC20",
          "name": "tokenContract",
          "type": "address"
        },
        {
          "internalType": "address",
          "name": "to",
          "type": "address"
        },
        {
          "internalType": "uint256",
          "name": "amount",
          "type": "uint256"
        }
      ],
      "name": "rescueERC20",
      "outputs": [],
      "stateMutability": "nonpayable",
      "type": "function"
    },
    {
      "inputs": [],
      "name": "rescuer",
      "outputs": [
        {
          "internalType": "address",
          "name": "",
          "type": "address"
        }
      ],
      "stateMutability": "view",
      "type": "function"
    },
    {
      "inputs": [],
      "name": "symbol",
      "outputs": [
        {
          "internalType": "string",
          "name": "",
          "type": "string"
        }
      ],
      "stateMutability": "view",
      "type": "function"
    },
    {
      "inputs": [],
      "name": "totalSupply",
      "outputs": [
        {
          "internalType": "uint256",
          "name": "",
          "type": "uint256"
        }
      ],
      "stateMutability": "view",
      "type": "function"
    },
    {
      "inputs": [
        {
          "internalType": "address",
          "name": "to",
          "type": "address"
        },
        {
          "internalType": "uint256",
          "name": "value",
          "type": "uint256"
        }
      ],
      "name": "transfer",
      "outputs": [
        {
          "internalType": "bool",
          "name": "",
          "type": "bool"
        }
      ],
      "stateMutability": "nonpayable",
      "type": "function"
    },
    {
      "inputs": [
        {
          "internalType": "address",
          "name": "from",
          "type": "address"
        },
        {
          "internalType": "address",
          "name": "to",
          "type": "address"
        },
        {
          "internalType": "uint256",
          "name": "value",
          "type": "uint256"
        }
      ],
      "name": "transferFrom",
      "outputs": [
        {
          "internalType": "bool",
          "name": "",
          "type": "bool"
        }
      ],
      "stateMutability": "nonpayable",
      "type": "function"
    },
    {
      "inputs": [
        {
          "internalType": "address",
          "name": "newOwner",
          "type": "address"
        }
      ],
      "name": "transferOwnership",
      "outputs": [],
      "stateMutability": "nonpayable",
      "type": "function"
    },
    {
      "inputs": [
        {
          "internalType": "address",
          "name": "from",
          "type": "address"
        },
        {
          "internalType": "address",
          "name": "to",
          "type": "address"
        },
        {
          "internalType": "uint256",
          "name": "value",
          "type": "uint256"
        },
        {
          "internalType": "uint256",
          "name": "validAfter",
          "type": "uint256"
        },
        {
          "internalType": "uint256",
          "name": "validBefore",
          "type": "uint256"
        },
        {
          "internalType": "bytes32",
          "name": "nonce",
          "type": "bytes32"
        },
        {
          "internalType": "uint8",
          "name": "v",
          "type": "uint8"
        },
        {
          "internalType": "bytes32",
          "name": "r",
          "type": "bytes32"
        },
        {
          "internalType": "bytes32",
          "name": "s",
          "type": "bytes32"
        }
      ],
      "name": "transferWithAuthorization",
      "outputs": [],
      "stateMutability": "nonpayable",
      "type": "function"
    },
    {
      "inputs": [
        {
          "internalType": "address",
          "name": "_account",
          "type": "address"
        }
      ],
      "name": "unBlacklist",
      "outputs": [],
      "stateMutability": "nonpayable",
      "type": "function"
    },
    {
      "inputs": [],
      "name": "unpause",
      "outputs": [],
      "stateMutability": "nonpayable",
      "type": "function"
    },
    {
      "inputs": [
        {
          "internalType": "address",
          "name": "_newBlacklister",
          "type": "address"
        }
      ],
      "name": "updateBlacklister",
      "outputs": [],
      "stateMutability": "nonpayable",
      "type": "function"
    },
    {
      "inputs": [
        {
          "internalType": "address",
          "name": "_newMasterMinter",
          "type": "address"
        }
      ],
      "name": "updateMasterMinter",
      "outputs": [],
      "stateMutability": "nonpayable",
      "type": "function"
    },
    {
      "inputs": [
        {
          "internalType": "address",
          "name": "_newPauser",
          "type": "address"
        }
      ],
      "name": "updatePauser",
      "outputs": [],
      "stateMutability": "nonpayable",
      "type": "function"
    },
    {
      "inputs": [
        {
          "internalType": "address",
          "name": "newRescuer",
          "type": "address"
        }
      ],
      "name": "updateRescuer",
      "outputs": [],
      "stateMutability": "nonpayable",
      "type": "function"
    }
  ],
  "bytecode": "0x60806040526001805460ff60a01b191690556000600b553480156200002357600080fd5b506200002f3362000035565b62000057565b600080546001600160a01b0319166001600160a01b0392909216919091179055565b613ee980620000676000396000f3fe608060405234801561001057600080fd5b50600436106102a05760003560e01c80638456cb5911610167578063bd102430116100ce578063e5a6b10f11610087578063e5a6b10f14610a6f578063e94a010214610a77578063ef55bec614610aa3578063f2fde38b14610b02578063f9f92be414610b28578063fe575a8714610b4e576102a0565b8063bd10243014610913578063d505accf1461091b578063d608ea641461096c578063d9169487146109da578063dd62ed3e146109e2578063e3ee160e14610a10576102a0565b8063a457c2d711610120578063a457c2d714610813578063a9059cbb1461083f578063aa20e1e41461086b578063aa271e1a14610891578063ad38bf22146108b7578063b2118a8d146108dd576102a0565b80638456cb59146107c55780638a6db9c3146107cd5780638da5cb5b146107f357806395d89b41146107fb5780639fd0506d14610803578063a0cc6a681461080b576102a0565b806338a631831161020b578063554bab3c116101c4578063554bab3c146107025780635a049a70146107285780635c975abb1461076957806370a08231146107715780637ecebe00146107975780637f2eecc3146107bd576102a0565b806338a631831461065157806339509351146106595780633f4ba83a1461068557806340c10f191461068d57806342966c68146106b95780634e44d956146106d6576102a0565b80633092afd51161025d5780633092afd51461040057806330adf81f14610426578063313ce5671461042e5780633357162b1461044c57806335d99f35146106255780633644e51514610649576102a0565b806306fdde03146102a5578063095ea7b31461032257806318160ddd146103625780631a8952661461037c57806323b872dd146103a45780632ab60045146103da575b600080fd5b6102ad610b74565b6040805160208082528351818301528351919283929083019185019080838360005b838110156102e75781810151838201526020016102cf565b50505050905090810190601f1680156103145780820380516001836020036101000a031916815260200191505b509250505060405180910390f35b61034e6004803603604081101561033857600080fd5b506001600160a01b038135169060200135610c02565b604080519115158252519081900360200190f35b61036a610d16565b60408051918252519081900360200190f35b6103a26004803603602081101561039257600080fd5b50356001600160a01b0316610d1c565b005b61034e600480360360608110156103ba57600080fd5b506001600160a01b03813581169160208101359091169060400135610dae565b6103a2600480360360208110156103f057600080fd5b50356001600160a01b0316610fd3565b61034e6004803603602081101561041657600080fd5b50356001600160a01b03166110af565b61036a611156565b61043661117a565b6040805160ff9092168252519081900360200190f35b6103a2600480360361010081101561046357600080fd5b810190602081018135600160201b81111561047d57600080fd5b82018360208201111561048f57600080fd5b803590602001918460018302840111600160201b831117156104b057600080fd5b91908080601f0160208091040260200160405190810160405280939291908181526020018383808284376000920191909152509295949360208101935035915050600160201b81111561050257600080fd5b82018360208201111561051457600080fd5b803590602001918460018302840111600160201b8311171561053557600080fd5b91908080601f0160208091040260200160405190810160405280939291908181526020018383808284376000920191909152509295949360208101935035915050600160201b81111561058757600080fd5b82018360208201111561059957600080fd5b803590602001918460018302840111600160201b831117156105ba57600080fd5b91908080601f0160208091040260200160405190810160405280939291908181526020018383808284376000920191909152509295505050813560ff1692505060208101356001600160a01b0390811691604081013582169160608201358116916080013516611183565b61062d61138f565b604080516001600160a01b039092168252519081900360200190f35b61036a61139e565b61062d6113a4565b61034e6004803603604081101561066f57600080fd5b506001600160a01b0381351690602001356113b3565b6103a26114bc565b61034e600480360360408110156106a357600080fd5b506001600160a01b03813516906020013561153d565b6103a2600480360360208110156106cf57600080fd5b5035611850565b61034e600480360360408110156106ec57600080fd5b506001600160a01b038135169060200135611a6a565b6103a26004803603602081101561071857600080fd5b50356001600160a01b0316611b73565b6103a2600480360360a081101561073e57600080fd5b506001600160a01b038135169060208101359060ff6040820135169060608101359060800135611c55565b61034e611cbb565b61036a6004803603602081101561078757600080fd5b50356001600160a01b0316611ccb565b61036a600480360360208110156107ad57600080fd5b50356001600160a01b0316611ce6565b61036a611d01565b6103a2611d25565b61036a600480360360208110156107e357600080fd5b50356001600160a01b0316611dac565b61062d611dc7565b6102ad611dd6565b61062d611e31565b61036a611e40565b61034e6004803603604081101561082957600080fd5b506001600160a01b038135169060200135611e64565b61034e6004803603604081101561085557600080fd5b506001600160a01b038135169060200135611f6d565b6103a26004803603602081101561088157600080fd5b50356001600160a01b0316612076565b61034e600480360360208110156108a757600080fd5b50356001600160a01b0316612158565b6103a2600480360360208110156108cd57600080fd5b50356001600160a01b0316612176565b6103a2600480360360608110156108f357600080fd5b506001600160a01b03813581169160208101359091169060400135612258565b61062d6122ba565b6103a2600480360360e081101561093157600080fd5b506001600160a01b03813581169160208101359091169060408101359060608101359060ff6080820135169060a08101359060c001356122c9565b6103a26004803603602081101561098257600080fd5b810190602081018135600160201b81111561099c57600080fd5b8201836020820111156109ae57600080fd5b803590602001918460018302840111600160201b831117156109cf57600080fd5b5090925090506123e9565b61036a612487565b61036a600480360360408110156109f857600080fd5b506001600160a01b03813581169160200135166124ab565b6103a26004803603610120811015610a2757600080fd5b506001600160a01b03813581169160208101359091169060408101359060608101359060808101359060a08101359060ff60c0820135169060e08101359061010001356124d6565b6102ad6125fa565b61034e60048036036040811015610a8d57600080fd5b506001600160a01b038135169060200135612655565b6103a26004803603610120811015610aba57600080fd5b506001600160a01b03813581169160208101359091169060408101359060608101359060808101359060a08101359060ff60c0820135169060e0810135906101000135612680565b6103a260048036036020811015610b1857600080fd5b50356001600160a01b0316612797565b6103a260048036036020811015610b3e57600080fd5b50356001600160a01b031661287d565b61034e60048036036020811015610b6457600080fd5b50356001600160a01b0316612912565b6004805460408051602060026001851615610100026000190190941693909304601f81018490048402820184019092528181529291830182828015610bfa5780601f10610bcf57610100808354040283529160200191610bfa565b820191906000526020600020905b815481529060010190602001808311610bdd57829003601f168201915b505050505081565b600154600090600160a01b900460ff1615610c57576040805162461bcd60e51b815260206004820152601060248201526f14185d5cd8589b194e881c185d5cd95960821b604482015290519081900360640190fd5b3360008181526003602052604090205460ff1615610ca65760405162461bcd60e51b8152600401808060200182810382526025815260200180613e456025913960400191505060405180910390fd5b6001600160a01b038416600090815260036020526040902054849060ff1615610d005760405162461bcd60e51b8152600401808060200182810382526025815260200180613e456025913960400191505060405180910390fd5b610d0b338686612930565b506001949350505050565b600b5490565b6002546001600160a01b03163314610d655760405162461bcd60e51b815260040180806020018281038252602c815260200180613b49602c913960400191505060405180910390fd5b6001600160a01b038116600081815260036020526040808220805460ff19169055517f117e3210bb9aa7d9baff172026820255c6f6c30ba8999d1c2fd88e2848137c4e9190a250565b600154600090600160a01b900460ff1615610e03576040805162461bcd60e51b815260206004820152601060248201526f14185d5cd8589b194e881c185d5cd95960821b604482015290519081900360640190fd5b3360008181526003602052604090205460ff1615610e525760405162461bcd60e51b8152600401808060200182810382526025815260200180613e456025913960400191505060405180910390fd5b6001600160a01b038516600090815260036020526040902054859060ff1615610eac5760405162461bcd60e51b8152600401808060200182810382526025815260200180613e456025913960400191505060405180910390fd5b6001600160a01b038516600090815260036020526040902054859060ff1615610f065760405162461bcd60e51b8152600401808060200182810382526025815260200180613e456025913960400191505060405180910390fd5b6001600160a01b0387166000908152600a60209081526040808320338452909152902054851115610f685760405162461bcd60e51b8152600401808060200182810382526028815260200180613c0f6028913960400191505060405180910390fd5b610f73878787612a1c565b6001600160a01b0387166000908152600a60209081526040808320338452909152902054610fa19086612bab565b6001600160a01b0388166000908152600a60209081526040808320338452909152902055600193505050509392505050565b6000546001600160a01b03163314611020576040805162461bcd60e51b81526020600482018190526024820152600080516020613c37833981519152604482015290519081900360640190fd5b6001600160a01b0381166110655760405162461bcd60e51b815260040180806020018281038252602a815260200180613aa7602a913960400191505060405180910390fd5b600e80546001600160a01b0319166001600160a01b0383169081179091556040517fe475e580d85111348e40d8ca33cfdd74c30fe1655c2d8537a13abc10065ffa5a90600090a250565b6008546000906001600160a01b031633146110fb5760405162461bcd60e51b8152600401808060200182810382526029815260200180613b206029913960400191505060405180910390fd5b6001600160a01b0382166000818152600c60209081526040808320805460ff19169055600d909152808220829055517fe94479a9f7e1952cc78f2d6baab678adc1b772d936c6583def489e524cb666929190a2506001919050565b7f6e71edae12b1b97f4d1f60370fef10105fa2faae0126114a169c64845d6126c981565b60065460ff1681565b600854600160a01b900460ff16156111cc5760405162461bcd60e51b815260040180806020018281038252602a815260200180613caa602a913960400191505060405180910390fd5b6001600160a01b0384166112115760405162461bcd60e51b815260040180806020018281038252602f815260200180613bbc602f913960400191505060405180910390fd5b6001600160a01b0383166112565760405162461bcd60e51b8152600401808060200182810382526029815260200180613a7e6029913960400191505060405180910390fd5b6001600160a01b03821661129b5760405162461bcd60e51b815260040180806020018281038252602e815260200180613c57602e913960400191505060405180910390fd5b6001600160a01b0381166112e05760405162461bcd60e51b8152600401808060200182810382526028815260200180613dbd6028913960400191505060405180910390fd5b87516112f39060049060208b019061384c565b5086516113079060059060208a019061384c565b50855161131b90600790602089019061384c565b506006805460ff191660ff8716179055600880546001600160a01b03199081166001600160a01b03878116919091179092556001805482168684161790556002805490911691841691909117905561137281612bf4565b50506008805460ff60a01b1916600160a01b179055505050505050565b6008546001600160a01b031681565b600f5481565b600e546001600160a01b031690565b600154600090600160a01b900460ff1615611408576040805162461bcd60e51b815260206004820152601060248201526f14185d5cd8589b194e881c185d5cd95960821b604482015290519081900360640190fd5b3360008181526003602052604090205460ff16156114575760405162461bcd60e51b8152600401808060200182810382526025815260200180613e456025913960400191505060405180910390fd5b6001600160a01b038416600090815260036020526040902054849060ff16156114b15760405162461bcd60e51b8152600401808060200182810382526025815260200180613e456025913960400191505060405180910390fd5b610d0b338686612c16565b6001546001600160a01b031633146115055760405162461bcd60e51b8152600401808060200182810382526022815260200180613d4b6022913960400191505060405180910390fd5b6001805460ff60a01b191690556040517f7805862f689e2f13df9f062ff482ad3ad112aca9e0847911ed832e158c525b3390600090a1565b600154600090600160a01b900460ff1615611592576040805162461bcd60e51b815260206004820152601060248201526f14185d5cd8589b194e881c185d5cd95960821b604482015290519081900360640190fd5b336000908152600c602052604090205460ff166115e05760405162461bcd60e51b8152600401808060200182810382526021815260200180613b9b6021913960400191505060405180910390fd5b3360008181526003602052604090205460ff161561162f5760405162461bcd60e51b8152600401808060200182810382526025815260200180613e456025913960400191505060405180910390fd5b6001600160a01b038416600090815260036020526040902054849060ff16156116895760405162461bcd60e51b8152600401808060200182810382526025815260200180613e456025913960400191505060405180910390fd5b6001600160a01b0385166116ce5760405162461bcd60e51b81526004018080602001828103825260238152602001806139ed6023913960400191505060405180910390fd5b6000841161170d5760405162461bcd60e51b8152600401808060200182810382526029815260200180613ad16029913960400191505060405180910390fd5b336000908152600d60205260409020548085111561175c5760405162461bcd60e51b815260040180806020018281038252602e815260200180613d1d602e913960400191505060405180910390fd5b600b546117699086612c53565b600b556001600160a01b03861660009081526009602052604090205461178f9086612c53565b6001600160a01b0387166000908152600960205260409020556117b28186612bab565b336000818152600d602090815260409182902093909355805188815290516001600160a01b038a16937fab8530f87dc9b59234c4623bf917212bb2536d647574c8e7e5da92c2ede0c9f8928290030190a36040805186815290516001600160a01b038816916000917fddf252ad1be2c89b69c2b068fc378daa952ba7f163c4a11628f55a4df523b3ef9181900360200190a350600195945050505050565b600154600160a01b900460ff16156118a2576040805162461bcd60e51b815260206004820152601060248201526f14185d5cd8589b194e881c185d5cd95960821b604482015290519081900360640190fd5b336000908152600c602052604090205460ff166118f05760405162461bcd60e51b8152600401808060200182810382526021815260200180613b9b6021913960400191505060405180910390fd5b3360008181526003602052604090205460ff161561193f5760405162461bcd60e51b8152600401808060200182810382526025815260200180613e456025913960400191505060405180910390fd5b336000908152600960205260409020548261198b5760405162461bcd60e51b81526004018080602001828103825260298152602001806139c46029913960400191505060405180910390fd5b828110156119ca5760405162461bcd60e51b8152600401808060200182810382526026815260200180613b756026913960400191505060405180910390fd5b600b546119d79084612bab565b600b556119e48184612bab565b33600081815260096020908152604091829020939093558051868152905191927fcc16f5dbb4873280815c1ee09dbd06736cffcc184412cf7a71a0fdb75d397ca592918290030190a260408051848152905160009133917fddf252ad1be2c89b69c2b068fc378daa952ba7f163c4a11628f55a4df523b3ef9181900360200190a3505050565b600154600090600160a01b900460ff1615611abf576040805162461bcd60e51b815260206004820152601060248201526f14185d5cd8589b194e881c185d5cd95960821b604482015290519081900360640190fd5b6008546001600160a01b03163314611b085760405162461bcd60e51b8152600401808060200182810382526029815260200180613b206029913960400191505060405180910390fd5b6001600160a01b0383166000818152600c60209081526040808320805460ff19166001179055600d825291829020859055815185815291517f46980fca912ef9bcdbd36877427b6b90e860769f604e89c0e67720cece530d209281900390910190a250600192915050565b6000546001600160a01b03163314611bc0576040805162461bcd60e51b81526020600482018190526024820152600080516020613c37833981519152604482015290519081900360640190fd5b6001600160a01b038116611c055760405162461bcd60e51b81526004018080602001828103825260288152602001806139716028913960400191505060405180910390fd5b600180546001600160a01b0319166001600160a01b0383811691909117918290556040519116907fb80482a293ca2e013eda8683c9bd7fc8347cfdaeea5ede58cba46df502c2a60490600090a250565b600154600160a01b900460ff1615611ca7576040805162461bcd60e51b815260206004820152601060248201526f14185d5cd8589b194e881c185d5cd95960821b604482015290519081900360640190fd5b611cb48585858585612cad565b5050505050565b600154600160a01b900460ff1681565b6001600160a01b031660009081526009602052604090205490565b6001600160a01b031660009081526011602052604090205490565b7fd099cc98ef71107a616c4f0f941f04c322d8e254fe26b3c6668db87aae413de881565b6001546001600160a01b03163314611d6e5760405162461bcd60e51b8152600401808060200182810382526022815260200180613d4b6022913960400191505060405180910390fd5b6001805460ff60a01b1916600160a01b1790556040517f6985a02210a168e66602d3235cb6db0e70f92b3ba4d376a33c0f3d9434bff62590600090a1565b6001600160a01b03166000908152600d602052604090205490565b6000546001600160a01b031690565b6005805460408051602060026001851615610100026000190190941693909304601f81018490048402820184019092528181529291830182828015610bfa5780601f10610bcf57610100808354040283529160200191610bfa565b6001546001600160a01b031681565b7f7c7c6cdb67a18743f49ec6fa9b35f50d52ed05cbed4cc592e13b44501c1a226781565b600154600090600160a01b900460ff1615611eb9576040805162461bcd60e51b815260206004820152601060248201526f14185d5cd8589b194e881c185d5cd95960821b604482015290519081900360640190fd5b3360008181526003602052604090205460ff1615611f085760405162461bcd60e51b8152600401808060200182810382526025815260200180613e456025913960400191505060405180910390fd5b6001600160a01b038416600090815260036020526040902054849060ff1615611f625760405162461bcd60e51b8152600401808060200182810382526025815260200180613e456025913960400191505060405180910390fd5b610d0b338686612dd7565b600154600090600160a01b900460ff1615611fc2576040805162461bcd60e51b815260206004820152601060248201526f14185d5cd8589b194e881c185d5cd95960821b604482015290519081900360640190fd5b3360008181526003602052604090205460ff16156120115760405162461bcd60e51b8152600401808060200182810382526025815260200180613e456025913960400191505060405180910390fd5b6001600160a01b038416600090815260036020526040902054849060ff161561206b5760405162461bcd60e51b8152600401808060200182810382526025815260200180613e456025913960400191505060405180910390fd5b610d0b338686612a1c565b6000546001600160a01b031633146120c3576040805162461bcd60e51b81526020600482018190526024820152600080516020613c37833981519152604482015290519081900360640190fd5b6001600160a01b0381166121085760405162461bcd60e51b815260040180806020018281038252602f815260200180613bbc602f913960400191505060405180910390fd5b600880546001600160a01b0319166001600160a01b0383811691909117918290556040519116907fdb66dfa9c6b8f5226fe9aac7e51897ae8ee94ac31dc70bb6c9900b2574b707e690600090a250565b6001600160a01b03166000908152600c602052604090205460ff1690565b6000546001600160a01b031633146121c3576040805162461bcd60e51b81526020600482018190526024820152600080516020613c37833981519152604482015290519081900360640190fd5b6001600160a01b0381166122085760405162461bcd60e51b8152600401808060200182810382526032815260200180613e136032913960400191505060405180910390fd5b600280546001600160a01b0319166001600160a01b0383811691909117918290556040519116907fc67398012c111ce95ecb7429b933096c977380ee6c421175a71a4a4c6c88c06e90600090a250565b600e546001600160a01b031633146122a15760405162461bcd60e51b8152600401808060200182810382526024815260200180613beb6024913960400191505060405180910390fd5b6122b56001600160a01b0384168383612e26565b505050565b6002546001600160a01b031681565b600154600160a01b900460ff161561231b576040805162461bcd60e51b815260206004820152601060248201526f14185d5cd8589b194e881c185d5cd95960821b604482015290519081900360640190fd5b6001600160a01b038716600090815260036020526040902054879060ff16156123755760405162461bcd60e51b8152600401808060200182810382526025815260200180613e456025913960400191505060405180910390fd5b6001600160a01b038716600090815260036020526040902054879060ff16156123cf5760405162461bcd60e51b8152600401808060200182810382526025815260200180613e456025913960400191505060405180910390fd5b6123de89898989898989612e78565b505050505050505050565b600854600160a01b900460ff168015612405575060125460ff16155b61240e57600080fd5b61241a600483836138ca565b5061247382828080601f016020809104026020016040519081016040528093929190818152602001838380828437600092019190915250506040805180820190915260018152601960f91b60208201529150612fd39050565b600f5550506012805460ff19166001179055565b7f158b0a9edf7a828aad02f63cd515c68ef2f50ba807396f6d12842833a159742981565b6001600160a01b039182166000908152600a6020908152604080832093909416825291909152205490565b600154600160a01b900460ff1615612528576040805162461bcd60e51b815260206004820152601060248201526f14185d5cd8589b194e881c185d5cd95960821b604482015290519081900360640190fd5b6001600160a01b038916600090815260036020526040902054899060ff16156125825760405162461bcd60e51b8152600401808060200182810382526025815260200180613e456025913960400191505060405180910390fd5b6001600160a01b038916600090815260036020526040902054899060ff16156125dc5760405162461bcd60e51b8152600401808060200182810382526025815260200180613e456025913960400191505060405180910390fd5b6125ed8b8b8b8b8b8b8b8b8b613045565b5050505050505050505050565b6007805460408051602060026001851615610100026000190190941693909304601f81018490048402820184019092528181529291830182828015610bfa5780601f10610bcf57610100808354040283529160200191610bfa565b6001600160a01b03919091166000908152601060209081526040808320938352929052205460ff1690565b600154600160a01b900460ff16156126d2576040805162461bcd60e51b815260206004820152601060248201526f14185d5cd8589b194e881c185d5cd95960821b604482015290519081900360640190fd5b6001600160a01b038916600090815260036020526040902054899060ff161561272c5760405162461bcd60e51b8152600401808060200182810382526025815260200180613e456025913960400191505060405180910390fd5b6001600160a01b038916600090815260036020526040902054899060ff16156127865760405162461bcd60e51b8152600401808060200182810382526025815260200180613e456025913960400191505060405180910390fd5b6125ed8b8b8b8b8b8b8b8b8b613153565b6000546001600160a01b031633146127e4576040805162461bcd60e51b81526020600482018190526024820152600080516020613c37833981519152604482015290519081900360640190fd5b6001600160a01b0381166128295760405162461bcd60e51b8152600401808060200182810382526026815260200180613a366026913960400191505060405180910390fd5b600054604080516001600160a01b039283168152918316602083015280517f8be0079c531659141344cd1fd0a4f28419497f9722a3daafe3b4186f6b6457e09281900390910190a161287a81612bf4565b50565b6002546001600160a01b031633146128c65760405162461bcd60e51b815260040180806020018281038252602c815260200180613b49602c913960400191505060405180910390fd5b6001600160a01b038116600081815260036020526040808220805460ff19166001179055517fffa4e6181777692565cf28528fc88fd1516ea86b56da075235fa575af6a4b8559190a250565b6001600160a01b031660009081526003602052604090205460ff1690565b6001600160a01b0383166129755760405162461bcd60e51b8152600401808060200182810382526024815260200180613cf96024913960400191505060405180910390fd5b6001600160a01b0382166129ba5760405162461bcd60e51b8152600401808060200182810382526022815260200180613a5c6022913960400191505060405180910390fd5b6001600160a01b038084166000818152600a6020908152604080832094871680845294825291829020859055815185815291517f8c5be1e5ebec7d5bd14f71427d1e84f3dd0314c0f7b2291e5b200ac8c7c3b9259281900390910190a3505050565b6001600160a01b038316612a615760405162461bcd60e51b8152600401808060200182810382526025815260200180613cd46025913960400191505060405180910390fd5b6001600160a01b038216612aa65760405162461bcd60e51b815260040180806020018281038252602381526020018061394e6023913960400191505060405180910390fd5b6001600160a01b038316600090815260096020526040902054811115612afd5760405162461bcd60e51b8152600401808060200182810382526026815260200180613afa6026913960400191505060405180910390fd5b6001600160a01b038316600090815260096020526040902054612b209082612bab565b6001600160a01b038085166000908152600960205260408082209390935590841681522054612b4f9082612c53565b6001600160a01b0380841660008181526009602090815260409182902094909455805185815290519193928716927fddf252ad1be2c89b69c2b068fc378daa952ba7f163c4a11628f55a4df523b3ef92918290030190a3505050565b6000612bed83836040518060400160405280601e81526020017f536166654d6174683a207375627472616374696f6e206f766572666c6f77000081525061322c565b9392505050565b600080546001600160a01b0319166001600160a01b0392909216919091179055565b6001600160a01b038084166000908152600a60209081526040808320938616835292905220546122b59084908490612c4e9085612c53565b612930565b600082820183811015612bed576040805162461bcd60e51b815260206004820152601b60248201527f536166654d6174683a206164646974696f6e206f766572666c6f770000000000604482015290519081900360640190fd5b612cb785856132c3565b604080517f158b0a9edf7a828aad02f63cd515c68ef2f50ba807396f6d12842833a159742960208201526001600160a01b0387168183018190526060828101889052835180840390910181526080909201909252600f54909190612d1e908686868661332a565b6001600160a01b031614612d79576040805162461bcd60e51b815260206004820152601e60248201527f46696174546f6b656e56323a20696e76616c6964207369676e61747572650000604482015290519081900360640190fd5b6001600160a01b0386166000818152601060209081526040808320898452909152808220805460ff19166001179055518792917f1cdd46ff242716cdaa72d159d339a485b3438398348d68f09d7c8c0a59353d8191a3505050505050565b6122b58383612c4e84604051806060016040528060258152602001613e8f602591396001600160a01b03808a166000908152600a60209081526040808320938c1683529290522054919061322c565b604080516001600160a01b038416602482015260448082018490528251808303909101815260649091019091526020810180516001600160e01b031663a9059cbb60e01b1790526122b5908490613381565b42841015612ecd576040805162461bcd60e51b815260206004820152601e60248201527f46696174546f6b656e56323a207065726d697420697320657870697265640000604482015290519081900360640190fd5b6001600160a01b0380881660008181526011602090815260409182902080546001810190915582517f6e71edae12b1b97f4d1f60370fef10105fa2faae0126114a169c64845d6126c992810192909252818301849052938a1660608201526080810189905260a081019390935260c08084018890528151808503909101815260e09093019052600f54612f63908686868661332a565b6001600160a01b031614612fbe576040805162461bcd60e51b815260206004820152601a60248201527f454950323631323a20696e76616c6964207369676e6174757265000000000000604482015290519081900360640190fd5b612fc9888888612930565b5050505050505050565b8151602092830120815191830191909120604080517f8b73c3c69bb8fe3d512ecc4cf759cc79239f7b179b0ffacaa9a75d522b39400f818601528082019390935260608301919091524660808301523060a0808401919091528151808403909101815260c09092019052805191012090565b61305189858888613432565b604080517f7c7c6cdb67a18743f49ec6fa9b35f50d52ed05cbed4cc592e13b44501c1a226760208201526001600160a01b03808c16828401819052908b166060830152608082018a905260a0820189905260c0820188905260e080830188905283518084039091018152610100909201909252600f549091906130d7908686868661332a565b6001600160a01b031614613132576040805162461bcd60e51b815260206004820152601e60248201527f46696174546f6b656e56323a20696e76616c6964207369676e61747572650000604482015290519081900360640190fd5b61313c8a866134be565b6131478a8a8a612a1c565b50505050505050505050565b6001600160a01b038816331461319a5760405162461bcd60e51b8152600401808060200182810382526025815260200180613c856025913960400191505060405180910390fd5b6131a689858888613432565b604080517fd099cc98ef71107a616c4f0f941f04c322d8e254fe26b3c6668db87aae413de860208201526001600160a01b03808c16828401819052908b166060830152608082018a905260a0820189905260c0820188905260e080830188905283518084039091018152610100909201909252600f549091906130d7908686868661332a565b600081848411156132bb5760405162461bcd60e51b81526004018080602001828103825283818151815260200191508051906020019080838360005b83811015613280578181015183820152602001613268565b50505050905090810190601f1680156132ad5780820380516001836020036101000a031916815260200191505b509250505060405180910390fd5b505050900390565b6001600160a01b038216600090815260106020908152604080832084845290915290205460ff16156133265760405162461bcd60e51b815260040180806020018281038252602e815260200180613de5602e913960400191505060405180910390fd5b5050565b80516020808301919091206040805161190160f01b8185015260228101899052604280820193909352815180820390930183526062019052805191012060009061337681878787613518565b979650505050505050565b60606133d6826040518060400160405280602081526020017f5361666545524332303a206c6f772d6c6576656c2063616c6c206661696c6564815250856001600160a01b031661369c9092919063ffffffff16565b8051909150156122b5578080602001905160208110156133f557600080fd5b50516122b55760405162461bcd60e51b815260040180806020018281038252602a815260200180613d93602a913960400191505060405180910390fd5b8142116134705760405162461bcd60e51b815260040180806020018281038252602b815260200180613999602b913960400191505060405180910390fd5b8042106134ae5760405162461bcd60e51b8152600401808060200182810382526025815260200180613e6a6025913960400191505060405180910390fd5b6134b884846132c3565b50505050565b6001600160a01b0382166000818152601060209081526040808320858452909152808220805460ff19166001179055518392917f98de503528ee59b575ef0c0a2576a82497bfc029a5685b209e9ec333479b10a591a35050565b60007f7fffffffffffffffffffffffffffffff5d576e7357a4501ddfe92f46681b20a08211156135795760405162461bcd60e51b8152600401808060200182810382526026815260200180613d6d6026913960400191505060405180910390fd5b8360ff16601b1415801561359157508360ff16601c14155b156135cd5760405162461bcd60e51b8152600401808060200182810382526026815260200180613a106026913960400191505060405180910390fd5b600060018686868660405160008152602001604052604051808581526020018460ff1681526020018381526020018281526020019450505050506020604051602081039080840390855afa158015613629573d6000803e3d6000fd5b5050604051601f1901519150506001600160a01b038116613691576040805162461bcd60e51b815260206004820152601c60248201527f45435265636f7665723a20696e76616c6964207369676e617475726500000000604482015290519081900360640190fd5b90505b949350505050565b6060613694848460008560606136b185613813565b613702576040805162461bcd60e51b815260206004820152601d60248201527f416464726573733a2063616c6c20746f206e6f6e2d636f6e7472616374000000604482015290519081900360640190fd5b60006060866001600160a01b031685876040518082805190602001908083835b602083106137415780518252601f199092019160209182019101613722565b6001836020036101000a03801982511681845116808217855250505050505090500191505060006040518083038185875af1925050503d80600081146137a3576040519150601f19603f3d011682016040523d82523d6000602084013e6137a8565b606091505b509150915081156137bc5791506136949050565b8051156137cc5780518082602001fd5b60405162461bcd60e51b8152602060048201818152865160248401528651879391928392604401919085019080838360008315613280578181015183820152602001613268565b6000813f7fc5d2460186f7233c927e7db2dcc703c0e500b653ca82273b7bfad8045d85a470818114801590613694575050151592915050565b828054600181600116156101000203166002900490600052602060002090601f016020900481019282601f1061388d57805160ff19168380011785556138ba565b828001600101855582156138ba579182015b828111156138ba57825182559160200191906001019061389f565b506138c6929150613938565b5090565b828054600181600116156101000203166002900490600052602060002090601f016020900481019282601f1061390b5782800160ff198235161785556138ba565b828001600101855582156138ba579182015b828111156138ba57823582559160200191906001019061391d565b5b808211156138c6576000815560010161393956fe45524332303a207472616e7366657220746f20746865207a65726f20616464726573735061757361626c653a206e65772070617573657220697320746865207a65726f206164647265737346696174546f6b656e56323a20617574686f72697a6174696f6e206973206e6f74207965742076616c696446696174546f6b656e3a206275726e20616d6f756e74206e6f742067726561746572207468616e203046696174546f6b656e3a206d696e7420746f20746865207a65726f206164647265737345435265636f7665723a20696e76616c6964207369676e6174757265202776272076616c75654f776e61626c653a206e6577206f776e657220697320746865207a65726f206164647265737345524332303a20617070726f766520746f20746865207a65726f206164647265737346696174546f6b656e3a206e65772070617573657220697320746865207a65726f2061646472657373526573637561626c653a206e6577207265736375657220697320746865207a65726f206164647265737346696174546f6b656e3a206d696e7420616d6f756e74206e6f742067726561746572207468616e203045524332303a207472616e7366657220616d6f756e7420657863656564732062616c616e636546696174546f6b656e3a2063616c6c6572206973206e6f7420746865206d61737465724d696e746572426c61636b6c69737461626c653a2063616c6c6572206973206e6f742074686520626c61636b6c697374657246696174546f6b656e3a206275726e20616d6f756e7420657863656564732062616c616e636546696174546f6b656e3a2063616c6c6572206973206e6f742061206d696e74657246696174546f6b656e3a206e6577206d61737465724d696e74657220697320746865207a65726f2061646472657373526573637561626c653a2063616c6c6572206973206e6f7420746865207265736375657245524332303a207472616e7366657220616d6f756e74206578636565647320616c6c6f77616e63654f776e61626c653a2063616c6c6572206973206e6f7420746865206f776e657246696174546f6b656e3a206e657720626c61636b6c697374657220697320746865207a65726f206164647265737346696174546f6b656e56323a2063616c6c6572206d7573742062652074686520706179656546696174546f6b656e3a20636f6e747261637420697320616c726561647920696e697469616c697a656445524332303a207472616e736665722066726f6d20746865207a65726f206164647265737345524332303a20617070726f76652066726f6d20746865207a65726f206164647265737346696174546f6b656e3a206d696e7420616d6f756e742065786365656473206d696e746572416c6c6f77616e63655061757361626c653a2063616c6c6572206973206e6f74207468652070617573657245435265636f7665723a20696e76616c6964207369676e6174757265202773272076616c75655361666545524332303a204552433230206f7065726174696f6e20646964206e6f74207375636365656446696174546f6b656e3a206e6577206f776e657220697320746865207a65726f206164647265737346696174546f6b656e56323a20617574686f72697a6174696f6e2069732075736564206f722063616e63656c6564426c61636b6c69737461626c653a206e657720626c61636b6c697374657220697320746865207a65726f2061646472657373426c61636b6c69737461626c653a206163636f756e7420697320626c61636b6c697374656446696174546f6b656e56323a20617574686f72697a6174696f6e206973206578706972656445524332303a2064656372656173656420616c6c6f77616e63652062656c6f77207a65726fa2646970667358221220ec3c2ec86e47fe0ac913b40f344b3fb2e440ba6a1990410330a8c99111972ff564736f6c634300060c0033",
  "linkReferences": {},
  "deployedLinkReferences": {}
}